:1000000000800020BD010000C54200007D420000CC
:100010007D4200007D4200007D4200007D420000E4
:100020007D4200007D4200007D420000C54200008C
:10003000C54200007D420000255A0000295A0000F8
:10004000C5420000C5420000C5420000C542000094
:10005000C5420000C5420000C5420000C542000084
:10006000C5420000C5420000C5420000C542000074
:10007000C5420000C5420000C5420000C542000064
:10008000C5420000C5420000C5420000C542000054
:10009000C5420000C5420000C5420000C542000044
:1000A0001926000025260000C5420000C5420000B8
:1000B000C5420000C5420000C5420000C542000024
:1000C000C5420000C5420000C5420000C542000014
:1000D000C5420000C5420000C5420000C542000004
:1000E000C5420000C5420000C5420000C5420000F4
:1000F000C5420000C5420000C5420000C5420000E4
:10010000C5420000C5420000C5420000C5420000D3
:10011000C5420000C5420000C5420000C5420000C3
:10012000C5420000C5420000C5420000C5420000B3
:10013000C5420000C5420000C5420000C5420000A3
:10014000C5420000C5420000C5420000C542000093
:10015000C5420000C5420000C5420000C542000083
:10016000C54200006D480000C5420000C5420000C5
:10017000C5420000C5420000C5420000C542000063
:10018000C5420000C5420000C5420000C542000053
:10019000C5420000C5420000C5420000C542000043
:1001A000C5420000C5420000C5420000C542000033
:1001B000C5420000C5420000E1570000564B4CF21A
:1001C000205210B51A804DF628121A8000BF00BFC9
:1001D00004F07CF8514B4FF010621A60504A9A605C
:1001E000504ADA60504A136813F4807304D14F49BF
:1001F0000B604FF4A85313604D4B1A78110703D5C9
:100200001A7842F008021A704A4B4B492A221A7097
:100210004A4A4B4B8B4204D252F8040F43F8040B6A
:10022000F8E7484B484900228B4202D243F8042B9E
:10023000FAE74649464A002352F8230041F82300D2
:1002400001336F2BF8D1434B434A802103F8011B44
:100250009342FBD1414B3D4A1A60414B8A221A70AE
:10026000A3F5805324225A70A0221A709A7992071B
:10027000FCD59A79D406FCD43A4A937903F00C035E
:10028000082B384BF9D103221A7140225A719A79FE
:100290009006FCD5334A9179324B4906FBD5324A58
:1002A000324911600221516020221A709A7902F0BD
:1002B0000C020C2AFAD12E4B2E4A1A602E4B2F4AD2
:1002C0001A6000225A60072243F8042C2C4AC3F813
:1002D0000C2D62B604F0B4F9144B1B68DA0705D58F
:1002E000284804F033F9284B284A1A60284B1B7819
:1002F0005B0609D5244C254B22689A4204D121483B
:1003000004F024F90023236006F084F903F0E4FFED
:1003100005F0A8FBFEE700BF0E200540308004403A
:10032000823F04000100002B10D0034014D0034092
:1003300002D0074000E00740FCA2FF1F4C31020042
:100340002097FF1FFCA2FF1FDCABFF1F0092FF1FC7
:100350000000000000E400E05FE400E008ED00E0E1
:100360000050064000400640448004400000030165
:1003700004800440C010050014E000E0FF76010096
:1003800000002020D9669C601CE00340A5C3945A5D
:1003900000F00740FFFFFFFFFFFFFFFFFFFFFFFF32
:1003A000FFFFFFFFFFFFFFFFFFFFFFFFFFFFFFFF5D
:1003B000FFFFFFFFFFFFFFFFFFFFFFFFFFFFFFFF4D
:1003C000FFFFFFFFFFFFFFFFFFFFFFFFFFFFFFFF3D
:1003D000FFFFFFFFFFFFFFFFFFFFFFFFFFFFFFFF2D
:1003E000FFFFFFFFFFFFFFFFFFFFFFFFFFFFFFFF1D
:1003F000FFFFFFFFFFFFFFFFFFFFFFFFFFFFFFFF0D
:10040000FFFFFFFFFFFFFFFFFFFFFFFFDEF9FFFF23
:1004100010B5054C237833B9044B13B10448AFF33E
:1004200000800123237010BDFCA2FF1F000000000C
:1004300048310200084B10B51BB108490848AFF31A
:1004400000800848036803B910BD074B002BFBD0A0
:10045000BDE81040184700BF0000000000A3FF1FC8
:1004600048310200FCA2FF1F000000002DE9F0034C
:10047000254E2649264A274B86FB0047C417C4EB66
:10048000674701FB170786FB0716F917C1EB2646DE
:1004900002FB16769E42C4BFC6F549363F3686FB40
:1004A00006231D14140C44EA03442901220141EAE5
:1004B000147319011001801841EA12715941001991
:1004C000694100184941030C43EA0143A3F52A534B
:1004D0002A3B4FEAE37903FB05F104FB0911A3FB77
:1004E00004230B44120C42EA034202F5803282FBE1
:1004F00006230749100C40EA03408F42C8BF404220
:10050000BDE8F003704700BF83CC7C517E480600F5
:100510003F2403001F920100002805DD02EB80004C
:1005200042F8041B8242FBD1704700BF70B5144CE7
:1005300001F5A02181FB0445230C044653EA054044
:10054000164605D00246C3170121002005F092FE91
:1005500076B1237963B926714FF480331A1A002AD1
:10056000226009DD82FB0223100C40EA034070BDCB
:1005700023682671002BF1DC0020206070BD00BFD5
:100580007C3E5B012DE9F84388460446994608996C
:100590001AB190F82030002B4ED084F8202000268D
:1005A000E7692D4D01373D40002DE76148DB25B35C
:1005B0002369A268C4F81080984531D042440523CD
:1005C00082FB0323120C42EA034202F5837222608B
:1005D00066BB94E80C00134423F0FF4323F4FE03AE
:1005E000002B32DB1D4A636083FB0223100C40EAC0
:1005F0000340BDE8F843FFF739BF10230911E36159
:1006000004F11400FFF792FF80FB09012369C4F88D
:100610001080020C42EA014252109845A260CDD1EE
:10062000E368E2609342C9D1002ED2D0002060601E
:10063000BDE8F843FFF71ABF80F820200126AFE796
:10064000013D65F00F050135B1E7013B6FEA03425B
:100650006FEA1242531CC5E70F0000807E48060077
:100660002DE9F04383B004460A980B9E2260B1F551
:10067000004FACBF012100215D104010B2F5F80F12
:10068000217725622061666140F3D58094F870304F
:1006900001212173002B00F08C8084F87010A36876
:1006A000E06E7749013001400029C0F2CD80002979
:1006B00000F08980E066207F00951146024604F133
:1006C0003C00FFF75FFFA769227F2169054604F11F
:1006D0003400FFF72BFF43F2333887FB08894FEADA
:1006E000184343EA0943C71703FB07F14FEA2942BE
:1006F000A3FB006700FB02121744216A227F04F16A
:100700002C00FFF713FF636985FB0001020C9811B1
:10071000360C42EA0142B0F5803F46EA07464FEA0E
:100720004202C0F29680C0F5003082FB0023120C1A
:1007300042EA0342A56A5348D4F824E085FB00014D
:10074000030C43EA01433244D21ACEEB02024FF6C5
:100750005D7382FB0323100C40EA03401914021856
:1007600041EB010312184B419E00970046EA927636
:100770003A1846EB01039F01960147EA9267B21AC5
:1007800067EB03039E00970046EA92763A0C42EA32
:100790000642154440F6CC4685FB0667330C43EA17
:1007A000074315440EEB4303A562636203B0BDE843
:1007B000F083207984F8701000283FD14FF448135B
:1007C0002171A3606CE7606E44F2ED3101FB00F033
:1007D00000F5F7500F3020F0FF4020F4FF00022119
:1007E0000028E16644DB216E606646F6393E0EFB6A
:1007F00001FE0EF5445E0EF1090E2EF0FF4E2EF4B2
:10080000FF0EBEF1000F4FEA004028DB4FEA0E4614
:10081000F717B6194FEAE0717F4100184941360CCD
:10082000000C46EA074640EA0140801B4000C4F83D
:1008300060E0A0613FE7002121732EE701287FF4EB
:100840002EAF2371A3602BE7013961F00101013163
:100850002DE786FB0001000C40EA01466AE70EF135
:10086000FF3E6FEA4E4E6FEA5E4E0EF1010ECDE78F
:1008700001386FEA40406FEA50400130B3E700BFF3
:1008800001000080CC0C020070B54910114C01F53C
:10089000A02181FB0445230C044653EA054016467B
:1008A00005D00246C3170121002005F0E3FC4EB13C
:1008B00023793BB926714FF48033181A0028206041
:1008C00004DD70BD23682671002BF6DC002020605B
:1008D00070BD00BF7C3E5B012DE9F843099E884650
:1008E0000446994608991AB190F82030002B4FD051
:1008F00084F820200025E0692D4F01300740002FAB
:10090000E06149DB1FB32369A268C4F810809845F1
:1009100030D04244D31792185B41120C42EA034292
:100920004132226065BB94E80C001A4422F0FF4279
:1009300022F4FE02002A34DB62601E4B82FB03239A
:10094000100C40EA0340BDE8F843FFF78FBD1023C9
:100950000911E36104F11400FFF796FF80FB090120
:100960002369C4F81080020C42EA014252109845F3
:10097000A260CED1E368E2609342CAD1002DD2D00A
:10098000812386FB0367320C42EA07426260D4E7A8
:1009900080F820200125AEE7013F67F00F070137FF
:1009A000B0E7013A6FEA02426FEA12420132C3E74E
:1009B0000F0000807E4806002DE9F04383B0044616
:1009C000B1F5004F0B9EA66010461D46A8BF012240
:1009D0000A9B6360B8BF0022227320602561014634
:1009E0008DE8600004F12400FFF776FF227B216987
:1009F000064604F11C00FFF747FFA1691D4B65691E
:100A000086FB006781FB0389330C4FEA184646EAF0
:100A1000094643EA07439B1B5B1B4FF2276683FB98
:100A20000667320C42EA074296184FEA274343EB27
:100A3000030792197B411F01160147EA12779219A9
:100A40007B411F02160247EA126792197B41120C82
:100A500042EA0342114443F2333681FB0667330C0A
:100A600043EA0743E81811440344A161636103B0FA
:100A7000BDE8F0833333020070B5144C01F5A021BA
:100A800081FB0445230C044653EA0540164605D075
:100A90000246C3170121002005F0ECFB76B1237953
:100AA00063B926714FF480331A1A002A226009DDD7
:100AB00082FB0223100C40EA034070BD23682671BC
:100AC000002BF1DC0020206070BD00BF7C3E5B018C
:100AD0002DE9F84FB1F5004F15460446ACBF012291
:100AE0000022B5F5004F0A9E0B980C9F6276C0F26B
:100AF0001C8101212176A56E9D4927610135294080
:100B00005B10F6108010002923602662E061A56664
:100B1000C0F20081002900F0B7806169A56D954899
:100B2000013528400028A565C0F2EF80002860D07C
:100B3000A56863682B4441F6991883FB08894FEA3E
:100B40001840BF1140EA0940B7F5803F4FEA610500
:100B50004FEA6003C0F2E380C7F5003083FB000179
:100B6000000C40EA0143314604F13800EF18FFF76A
:100B700083FF87FB0001030C43EA01436362227E8B
:100B8000E1697D4E04F13000FFF776FFE56A636AA4
:100B9000D4F828E080FB07014FEA104C85FB06677C
:100BA0004CEA014C320C634442EA07429A1ACEEBFB
:100BB00002034FF65E2283FB0223100C42F26666AC
:100BC00040EA03401914A0FB062306FB0133110C75
:100BD00041EA03416B1883FB0667320C42EA074285
:100BE0000B440EEB4202C4F80CC0E362A262BDE803
:100BF000F88F4FF0307883FB0889656D4FEA184015
:100C000040EA09404FF0040E85426065C4F858E0A0
:100C100000F08E804FEAE079000C40EA0945E56477
:100C2000206D284420F0FF4020F4FE000028C0F290
:100C30009880DFF84CA1206583FB0AABB0F5004F2C
:100C4000A36C4E4D4FEA1A4040EA0B40A8BF4FF448
:100C500080358342A064A5607AD04FEAE07B000C27
:100C600040EA0B432364606C184420F0FF4020F4FA
:100C7000FE0000286EDBB0F5004F404B6064A8BF5B
:100C80004FF48033636055E7206E44F2ED3101FB91
:100C900000F000F5F7500F3020F0FF4020F4FF0087
:100CA00002210028A1664CDBE56D206646F639314D
:100CB00001FB05F505F54455093525F0FF4525F4FB
:100CC000FF05002D4FEA004034DB4FEA05484FEAAC
:100CD000E87918EB08084FEAE07149EB09090018B8
:100CE00049414FEA184E000C40EA01404EEA094ED5
:100CF000CEEB0000400043F2333180FB0101000CD9
:100D000040EA0141E565616108E7013860F00300F0
:100D100001300BE7013961F001010131FAE685FB91
:100D20000701000C40EA01451DE700212176E2E6BB
:100D3000E56C75E7013D6FEA45456FEA55450135BC
:100D4000C3E701386FEA40406FEA50400130ABE73B
:100D5000236C88E701386FEA00406FEA10400130E9
:100D600089E701386FEA00406FEA1040013060E720
:100D70000100008003000080662602000000FFFFE3
:100D80000000BC0430B50024E9B00546214601AAA4
:100D900005200094FFF7C0FB214608AA0520069411
:100DA0000794FFF7B9FB21460EAA05200D94FFF723
:100DB000B3FB214613AA0520FFF7AEFB214618AA74
:100DC0000620FFF7A9FB284669464FF4D0721E940F
:100DD0001F9420942194229423948DF890408DF8B0
:100DE0009140259426942794289429942A948DF848
:100DF000AC402C948DF8B4402E942F9430943194C0
:100E00003294339434943594369437943894399496
:100E10008DF8E8403B948DF8F0403D943E943F942B
:100E20008DF8004141944294439444948DF81441C8
:100E300046948DF81C41489449944A944B944C94A0
:100E40004D948DF838414F948DF84041519452940F
:100E5000539454948DF854415694579458948DF863
:100E600064415A945B945C945D948DF878415F94EE
:100E7000609461946294639464948DF89441669450
:100E80008DF89C4102F012FF69B030BDFFF77ABFC8
:100E900070B5C36984B004463BB1012B23D0022B4B
:100EA00012D0406B401004B070BDC56D00F14C0114
:100EB000806D0EC98DE8210004F5AC70FFF77CFD54
:100EC0006063401004B070BD00F160016C3061C817
:100ED0000EC98DE8610004F17800FFF7F9FD606349
:100EE000401004B070BD856C00F13801406C0EC933
:100EF0008DE8210004F1E400FFF7B2FB6063D1E765
:100F00002DE9F041804604F01BFBD0B10746041DDB
:100F100008F1180600F5827500213046FFF7B8FF8A
:100F200000EBD070401024F8020BA542F4D14046EB
:100F30003946002204F082FB3846BDE8F04104F057
:100F400053BBBDE8F08100BF20290BD0212905D07B
:100F500022290BD14FF48033036670474FF480335E
:100F6000836370474FF48033C3647047232904BF01
:100F70004FF4803343667047202909D0212904D0DB
:100F8000222908D10023036670470023836370473A
:100F90000023C3647047232904BF002343667047BE
:100FA0001C290DD01D2904D01E291ED11204026552
:100FB00070471204B2F50C1F10DA0023036070476B
:100FC0001204B2F50C1F02DA0023C3617047B2F5B8
:100FD000960FB4BF01230223C3617047B2F5960F89
:100FE000B4BF01230223036070471F290CD02129BD
:100FF0000DD022290ED023290FD0242910D0252945
:1010000011D1120442647047120442657047120401
:10101000826570471204C26570471204C26370474C
:10102000120402647047262902D1120482647047B8
:10103000272902D1120482667047282907D029295E
:101040000AD02A2902D1120442677047704752041D
:1010500002F58032C266704712040267704700BF13
:101060004FF400130022C264826302664266036585
:1010700043658365C365C3630364436483648366B4
:10108000C36603674367704710B5044604F052FB1C
:10109000204610BD2DE9F84F804EDFF80882DFF8BA
:1010A0000CA2DFF80C92DFF800B2354602270024CC
:1010B0007B4BDAF800201B788BBBD9F800307360CB
:1010C0000620326002F0D2FF0E2898F8003002DCD1
:1010D000002C00F08C80032B00F08980062002F0A9
:1010E000C5FF0F2802DD002C00F0CE80082002F0A2
:1010F000BDFF0E2840F3A18098F80030032B63D089
:10110000082002F0B3FF0F2800F3A8800134022C5E
:1011100005F1040507F10107CAD1BDE8F88FD9F838
:101120000030F3600620B26002F0A0FF0E2898F8AD
:10113000003000DC14B3032B20D0062002F096FF11
:101140000F2802DD002C00F09580082002F08EFFB1
:101150000E2862DD98F80030032B22D0082002F020
:1011600085FF0F28D2DD012CD0D14E4BF2681978C3
:101170004D4B03EB0113DA60BDE8F88F07EB8303F7
:10118000A9685BF82320101D8842DEDB043A9142F7
:10119000DBDB08204BF8231002F068FF0E28D9DCB7
:1011A0003BE007F10C01AA685BF821E03E490EF133
:1011B00004009042AADBAEF104009042A6DC07EBEB
:1011C000830341F82320A1E704F10C0228685BF8AF
:1011D00022E035490EF10402824297DBAEF10402AF
:1011E000904293DB04EB830341F823008EE704EB8A
:1011F000830329685BF82320101D8842FFF676AF31
:10120000043A9142FFF672AF08204BF8231002F027
:101210002DFF0E283FF770AF0FE0012C9AD198F800
:101220000030AA68204907EB83005BF820E00EF14C
:1012300004008242BFDDBDE8F88F012C7FF45CAF73
:1012400098F80030286818490BEB0312D2F804E034
:101250000EF104028242C1DABDE8F88F012C7FF45E
:1012600055AF104B726819780F4B03EB01135A609E
:10127000BDE8F88F0B4BB2681B780BEB031308200B
:101280009A6002F0F3FE65E7064B32681B781B019B
:1012900008204BF8032002F0E9FE2DE70098FF1F1D
:1012A00058A3FF1FC4A4FF1FF4A6FF1F1098FF1F21
:1012B0001498FF1F002310B4104C417202610460A7
:1012C0000372C36041B1194600E0026942F823107D
:1012D000427A01339A42F8DC094B1A680AB90BE0EA
:1012E0001A465369002BFBD1506100234361838070
:1012F000C380837210BC70471860F6E7142C02009C
:1013000038ABFF1F214B224810B54FF4C0324FF4C9
:1013100040340C219C61DC611A625A6204F0E0F8EE
:101320001C48FFF79DFE0021022003F035F9002143
:10133000082003F031F90021092003F02DF90121E3
:101340000B2003F029F90121062003F025F90121E2
:10135000052003F021F90121042003F01DF90121EA
:10136000032003F019F90D2002F04CFE0A4A0B4B42
:10137000002101244FF40A7054855C859185116326
:1013800099851963D085D88510BD00BF28A4FF1F9B
:101390000082FF1F50A5FF1F64A3FF1F9CA3FF1F18
:1013A00070B5092002F062FE0546062002F05EFEDE
:1013B0001F4E3060072002F059FE0446082002F05C
:1013C00055FE1C4B1C4A1B7810609A1E012A23D91B
:1013D00032680444AB1841F6FF708342A8BF03464D
:1013E0008442A8BF044623EAE37524EAE47428464D
:1013F00004F0E0FC1149124E124D04F0E3FD04F03C
:10140000F3FE3060204604F0D5FC0C4904F0DAFD10
:1014100004F0EAFE286070BD022B03D0044484F37C
:101420000D04E4E733682B4483F30D05DFE700BFC9
:1014300020A5FF1FC4A4FF1F18A3FF1F00008142A7
:101440001098FF1F1498FF1F2DE9F047082003F0A4
:1014500095F8774C2060774802F0EEFB00286BD1BE
:101460002368012B7AD0744C744B754A754E1F78E3
:1014700015783378032B84BF002333701DB1724A73
:101480001368013313607148714A0368013382FBAA
:101490000321DA17C2EBA1124FF47A7101FB123269
:1014A00003606C49002A43D00A6842F21075AB42CF
:1014B000C4BF00230360B2F57A7F0ADD00230B600E
:1014C00057B101210B2003F053F823785BB9BDE835
:1014D000F0870FB1D207F4D500210B2003F048F8B4
:1014E0002378002BF3D0DFF87881D8F8003043F66A
:1014F000982201339342C8F80030E8DDDFF86491A8
:1015000099F80040002C42D05149DA1781FB0301C1
:10151000C2EB2112FA2101FB1232002A68D04E4A96
:101520000023136001210B20BDE8F04703F020B831
:101530000A6801320A60B8E73E4802F0A3FB05469C
:1015400000285AD03F4E40483D4A3B4C3378002754
:10155000012107601170394A17788BE73A4A116800
:1015600041F2941291427FF77EAF334C2778002FDF
:101570007FF47AAF314A1178002956D113701F4693
:101580002F4B304E1D7833780122227072E7334F93
:1015900004F1040A3D4655F8041B2046C9B2013443
:1015A00002F044FE5445F6D1102C07F11007EFD19C
:1015B0003178112002F03AFED8F80030244AD917C9
:1015C00082FB0302C1EB2212FA2101FB123201213C
:1015D00089F8001062B1204AB3F57A7FA0DC136865
:1015E000DB079FD500210B20BDE8F04702F0C0BF0C
:1015F000194A116801311160EEE70E4802F04CFB08
:1016000000283FF42DAF104A0D4B11681D700D4E90
:1016100040F6B7339942337802DC0133DBB23370E2
:10162000054C00212170116095E71770A8E700BFF5
:101630001CA5FF1F24A5FF1F74A4FF1F58A3FF1F95
:10164000D4A3FF1FC4A4FF1FC8A4FF1F34A5FF1FFE
:10165000D34D6210F0A6FF1F6CA4FF1FF4A6FF1F5E
:1016600068A4FF1F60A3FF1F70B5274D2B7833B30D
:10167000012B13D0022B00D070BD244E002404EBAC
:101680008302012304F1270156F8222020481C443C
:10169000FFF786FC042CEFD02B78F0E71B4E0024DC
:1016A00004EB8302012304F1230156F82220184899
:1016B0001C44FFF775FC042CDED02B78F0E7134CAC
:1016C0001348226801231E21FFF76AFC2A7810487C
:1016D00004EB0212012352681F21FFF761FC2A78F4
:1016E0000B4804EB0212012392682121FFF758FCFA
:1016F0002B78074804EB03142221E2680123BDE89C
:101700007040FFF74DBC00BFC4A4FF1FF4A6FF1F2D
:1017100050A5FF1F70B5224C237813BB0121032075
:1017200002F026FF2178012922D00021042002F0B6
:101730001FFF2378022B4FF00F0521D00021052039
:1017400002F016FF2378032B23D00021062002F09D
:101750000FFF2A4601231C211248BDE87040FFF705
:101760001FBC0021032002F003FF21780129DCD1F6
:10177000042002F0FDFE2378022B4FF03C05DDD162
:101780000121052002F0F4FE2378032B4FF05005D1
:10179000DBD10121062002F0EBFE5025D9E700BF86
:1017A000C4A4FF1F50A5FF1F2DE9F843082002F035
:1017B0005DFCBC4C80460920267802F0DFFE012843
:1017C00006F1200700F09680092002F0D7FE23786A
:1017D000054660B9022BDFF8CC920AD801223946BF
:1017E000B148FFF7C9FBB14A99F800301570022BD8
:1017F0006FD0032B01D0BDE8F883AD4B1B78002BD5
:1018000040F08D80AB4AAC4C536BAC4984FB030475
:10181000DB17C3EBE4040C60002C40F00781106B75
:101820006D2800F3388104F0C5FA4FF07F5104F0C1
:1018300015FBA34904F00AFA0021054604F0ACFCAC
:10184000002840F0C8829F49284604F007FB04F0B6
:10185000F1FC0730C008B0F5803FC0F0CC809A4B57
:101860009A4D4FF6FF72DA85002C00F0CA80012CE9
:1018700000F0CE81022C00F08A81032C00F0078258
:10188000042C00F04582052C00F085822C68904DD8
:10189000002C40F08E802B68B3F5FA7F04DD8D4C70
:1018A0002378002B00F0CE81092002F067FE08B9F2
:1018B0007E4B18702B68C72B02DC864B00221A70F7
:1018C000092002F05BFE002895D1784B1870BDE826
:1018D000F883B8F5FA7F55DCB8F1C70F8BDC06F159
:1018E000210101227048FFF747FB7A4A2378002143
:1018F00011707EE7DFF8B49199F80030002B7FF487
:1019000063AF2378022B3FF65FAF054603467F2285
:1019100039466548FFF718FB89F8005054E76549D8
:10192000654BCA6B694D83FB0203D217C2EBE3031D
:101930002B60002B40F08B80886B6D2832DC04F02C
:1019400039FA4FF07F5104F089FA5D4904F07EF9CD
:101950000021044604F020FC002840F0F68159499B
:10196000204604F07BFA04F065FC0730C008B0F5AF
:10197000803FC0F05782514A574B14684FF6FF72B0
:10198000DA8571E7534D2B78002B7FF434AF0123B8
:101990007F2206F121014448FFF7D6FA012223787D
:1019A0002A7026E74C4A454B4DF26B71D1851C6875
:1019B0005AE7012C5CD0022C00F0F780032C00F0D9
:1019C0003581042C00F0F581052C7FF46DAF2B6878
:1019D000B3F5FA7F7FF768AF3E4C2378002B7FF496
:1019E00063AF3E493E4801F0D3FB01233A482370E0
:1019F00000F0DEFF58E7344BD885002800F0EC817A
:101A0000324D092002F0BAFD012804467FF43EAFB2
:101A1000264E3378002B7FF439AF3249324801F03B
:101A2000B7FB2948347000F0C3FF2FE7012C00F00A
:101A3000C880022C00F08480032C00F00581042C67
:101A400000F03E81052C00F08281204D1EE7012B25
:101A500000F02B81022B4BD0032B00F06781042B6D
:101A600000F0E681052B00F0F481144B1C68FBE6C6
:101A70002B68B3F5FA7F7FF717AF164E3378002B3C
:101A80007FF412AF1949164801F082FB12483470F6
:101A900000F08EFF08E70C4B0C4D4DF26B72DA85AF
:101AA000AFE700BFC4A4FF1F50A5FF1F94A4FF1FF2
:101AB00058A3FF1FF4A6FF1F6766666660A4FF1F9A
:101AC000000020417978304264A3FF1F64A4FF1F07
:101AD00020A5FF1F95A4FF1F9CA3FF1FEC940000EF
:101AE000F4A4FF1FF8D30100CCA4FF1FFCF80100F1
:101AF000886B6D283FF756AF04F05CF9B84904F0E5
:101B0000ADF9B84904F0A2F80021044604F044FB02
:101B1000002840F01A81B449204604F09FF904F0EF
:101B200089FB0730C208B2F5803FBFF424AFAF4B4A
:101B3000DA85002A99D1AE4901220C68DA8593E64C
:101B4000106B6D2800F37F8104F034F9A44904F090
:101B500085F9A44904F07AF80021054604F01CFB3D
:101B6000002840F09981A049284604F077F904F054
:101B700061FB0730C208B2F5803FBFF470AE9D4BE9
:101B8000DA85002A40F0948101229B4DDA850920F4
:101B900002F0F4FC012804467FF478AE974E3378C7
:101BA000002B7FF473AE964938E72B68B3F5FA7FC4
:101BB0007FF77AAE934C2378002B7FF475AE904973
:101BC00010E7106B6D2800F3008104F0F3F88E49E4
:101BD00004F044F9834904F039F80021054604F083
:101BE000DBFA002840F056817F49284604F036F998
:101BF00004F020FB0730C208B2F5803FBFF42FAEDF
:101C00007C4BDA85002A40F0558101227A4DDA8535
:101C1000092002F0B3FC012804467FF437AE774E6A
:101C20003378002B7FF432AE7849F7E62B68B3F5B2
:101C3000FA7F7FF739AE734C2378002B7FF434AEF4
:101C40007349CFE67349CDE6136B6D2B00F3098121
:101C500098000A3004F0AEF80021054604F09CFA22
:101C6000002840F01B816049284604F0F7F804F092
:101C7000E1FA0730C208B2F5803FBFF4F0AD5D4B2A
:101C8000DA85002A40F0108101225B4DDA850920B7
:101C900002F074FC012804467FF4F8AD574E337807
:101CA000002B7FF4F3AD5A49B8E6886B6D283FF7F7
:101CB00079AE04F07FF8544904F0D0F8494921E79F
:101CC000106B6D2800F3DA8004F074F84FF07C514B
:101CD00004F0C4F8504903F0B9FF0021054604F0B0
:101CE0005BFA002840F0DC803F49284604F0B6F853
:101CF00004F0A0FA0730C208B2F5803FBFF4AFADE0
:101D00003C4BDA85002A40F0D18001223A4DDA8539
:101D1000092002F033FC012804467FF4B7AD374EAA
:101D20003378002B7FF4B2AD3C4977E68B6B6D2B9B
:101D30003FF738AE98000A3004F03CF80021044622
:101D400004F02AFA00283FF4E6AE284BF3E6106BC5
:101D50006D2800F39980C0EB0010053004F02AF8DC
:101D60000021054604F018FA002840F09B801E4927
:101D7000284604F073F804F05DFA0730C208B2F5A3
:101D8000803FBFF46CAD1B4BDA85002A40F0948095
:101D90000122194DDA85092002F0F0FB01280446E2
:101DA0007FF474AD154E3378002B7FF46FAD1C4972
:101DB00034E62B68B3F5FA7F7FF776AD114C2378C4
:101DC000002B7FF471AD15490CE60A4B0A4D4DF21C
:101DD0006B72DA851CE7074B074D0122DA8510E6A6
:101DE000CDCC0C4000002041797830429CA3FF1FED
:101DF00060A4FF1F64A3FF1F64A4FF1F94A4FF1F20
:101E0000686F000095A4FF1F66660640FCF801009D
:101E1000749A0100F8D301000000A0407084010012
:101E2000EC940000254BD88500283FF484AE1CE6D6
:101E3000886B6D281BDC03F0BDFF4FF07C5104F074
:101E40000DF81F495EE61F4B1F4D4DF26B72DA8590
:101E50009DE6886B6D283FF78EADC0EB0010053016
:101E60006AE7184B184D4DF26B72DA850FE7134A8B
:101E7000164B46F6B631D1851C68F5E4114B124D70
:101E800046F6B632DA8543E70E4B0F4D4FF6FF723A
:101E9000DA8580E70B4BB8E60A4B75E6094BF3E6AB
:101EA000084B32E7074B73E7074DF0E6064D2FE787
:101EB000054D6CE6044DABE6034D6CE79CA3FF1F9C
:101EC0000000A04064A3FF1F64A4FF1F60A4FF1FC5
:101ED0002DE9F047DFF8A09199F80040002C54D18B
:101EE000DFF89881A2464746261D3D46204602F06F
:101EF00083F901347F28D4BF2860C5F800A0B4421C
:101F000005F10405F2D1102C07F11007ECD11120D6
:101F100002F072F90328D4BF034600234C4A4D490E
:101F2000D8BF107008EB0318C8BF1370D8F80C2086
:101F3000494B83FB0203D217C2EBE3030B60ABBB3D
:101F4000D8F808006D2852DC03F034FF4FF07F51C1
:101F500003F084FF414903F079FE0021044604F0B8
:101F60001BF900283BD13E49204603F077FF04F0DF
:101F700061F90730C308B3F5803F4CD3394B4FF6B6
:101F8000FF72DA85012389F80030FFF75DFAFFF769
:101F900007FAFFF7BFFB344B1B680BB9FFF77AF862
:101FA000FFF762FBBDE8F047FFF7FEBB012B1AD03D
:101FB000022B24D0032B33D0042B38D0052B1AD17D
:101FC000D8F808006D28D9DCC0EB0010053003F00C
:101FD000F1FE0021044604F0DFF80028C3D0214AB6
:101FE0000123D38507E0D8F808006D280FDD1D4BCD
:101FF0004DF26B72DA85012389F80030C5E7D8F815
:1020000008006D28F3DC03F0D5FE1849A0E703F0C3
:10201000D1FE17499CE7134AD385002BE0D0EAE7AD
:10202000D8F808306D2BE2DC98000A30CFE7D8F8FA
:1020300008006D2807DC03F0BDFE4FF07C5103F073
:102040000DFF0C4987E7074B46F6B632DA85D2E733
:10205000C4A4FF1F64A4FF1F6766666600002041DA
:10206000797830429CA3FF1F1CA5FF1FCDCC0C40EC
:10207000666606400000A0401CA3FF1FF4A6FF1FD9
:102080002DE9F04F87B002F06FF828220821B148FF
:10209000DFF8108301F09AFDAF4BB04A1968039145
:1020A000039819680491049C10601B68AC4A05935E
:1020B000AC49AD4B059812681C6008600023AB4921
:1020C000C8F8001088F80930C8F8103088F80830CF
:1020D000C8F80C300AB937E11A465369002BFBD116
:1020E000C2F814800025A24BA248C8F80030C8F8F6
:1020F0001450A14BA8F80450A8F8065088F80A50CC
:102100000193FEF7C3FE2A4629469C489C4F9D4CEE
:102110009D4EDFF89492FFF7CDF8984B9B4883F8DB
:1021200026502A4629461C60FFF7C4F8974B07F152
:102130001802012138461C6083F82650FFF7BAF8D0
:10214000934B3B604FF00E03BB854FF0C103FB8503
:102150004FF000534FF03A0A4FF01C0B3B6340F234
:10216000776306F1180201213D85A7F82AA0BB86F6
:10217000A7F836B030463D77FFF79CF8844B3360C4
:10218000019B844C357703F1280218464FF00E036B
:10219000B3854FF0C103F3854FF00053042133633F
:1021A00040F277633585A6F82AA0B386A6F836B044
:1021B000FFF780F8019BDFF8F4A1C3F800A04FF40B
:1021C000803B09F1280204214846C3F818B0C3F83F
:1021D0001CB0C3F820B0C3F824B0FFF76BF84FF081
:1021E000010E04F11802614825722B462946E5606C
:1021F000C9F800A0C9F818B0C9F81CB0C9F820B0D7
:10220000C9F824B0206084F809E02261254600E086
:102210002A6942F82310627A5E4801339A42F7DC59
:102220004F4B1A680AB993E01A465369002BFBD149
:1022300054610025DFF878B1574B56486561A58099
:10224000E580A572236000F033FD4C4BDFF864A1FC
:102250008BF8085058468BE888008BF80950CBF86B
:102260000C508BF8105003F031FA4C4A4C49584648
:1022700003F0E0FC454BDFF840B18AF808505046C7
:102280008AE848008AF80950CAF80C508AF81050B9
:1022900003F01CFA414A4249504603F0CBFCDFF8F8
:1022A0001CA18BF8085058468BE800038BF80950A6
:1022B000CBF80C508BF8105003F008FA374A384925
:1022C000DFF8FC80584603F0B5FCDFF8F8B08AF878
:1022D0000850022350468AF809308AE88002CAF87A
:1022E0000C508AF8105003F0F1F92C4A2C49504652
:1022F00003F0A0FC032358468BF809308BF80850F4
:102300008BE84002CBF80C508BF8105003F0DEF94C
:10231000224A2349584603F08DFC404688F808506D
:10232000C8F80090C8F8044088F80950C8F80C5064
:1023300088F8105003F0CAF94046184A184903F0CB
:1023400079FC07B0BDE8F08F054BC3F80080C9E603
:1023500018606EE724A5FF1F3CAAFF1F5CA3FF1FA8
:1023600038ABFF1F70A4FF1F98A4FF1F142C02009E
:10237000082C020050A5FF1F20A3FF1FCCA4FF1FA5
:1023800064A3FF1F202F02009CA3FF1FF4A4FF1FC4
:10239000FC2E020078A4FF1F142F0200FC97FF1FE1
:1023A0008910000038A5FF1F28A4FF1F082F020076
:1023B000B0A4FF1F14A4FF1FD8A3FF1F00A4FF1F7A
:1023C000ECA3FF1F9CA4FF1F0020704790F839204A
:1023D00090F83800101A704790F8383090F839208B
:1023E0009A4205D95A1C034480F83820187E704759
:1023F0004FF0FF30704700BF90F8383090F8392028
:102400009A4286BF1B18187E4FF0FF30704700BFFE
:10241000704700BF38B50546B0F85E0090B195F83A
:102420005D301446C3F1210294420CD805F13B0003
:102430001844224601F03AFC95F85D30234485F8B3
:102440005D30204638BD012014462871EEE700BFFC
:10245000B0F85E306BB190F85D30202B07D8C21811
:10246000013380F85D30012082F83B107047012372
:1024700003710020704700BF10B50269D378DBB24A
:10248000D90604463DD510215806D17038D503F041
:10249000040303F0FF02002B51D03D49626E00237C
:1024A0000B7084F85D30002A5BD0904794F85D3063
:1024B000002B56D02369D0229A70236994F83B20D0
:1024C0001A712369012284F85C200222DA7010BD9F
:1024D000304B84F860009C424AD02F4B9C4252D033
:1024E00094F8391013791F29DBB207D828480078EF
:1024F00020B16018013184F8391003760223D370BB
:1025000010BD5906C3D4917801F0100101F0FF000D
:102510000029DDD013F001031ED194F85C1094F86B
:102520005D00884281BF4B1C091984F85C3091F82A
:102530003B3013712369D0229A702269DEE7236948
:1025400084F83920C0229A702369114A197901212F
:1025500011700222DA7010BDC023937022691379C2
:10256000CCE70122002384F85D2084F83B30A1E70A
:10257000626994F86130094913440322187A01F022
:1025800025FF2269ACE7626994F861300449F3E7FA
:1025900034A7FF1F1898FF1F8498FF1F0126000013
:1025A0000D2600000369DB7803F0200373B190F877
:1025B00060300133DBB2012B80F860301AD94269F8
:1025C00090F861301344187A01F07CBF70B542690D
:1025D00003F0FF0590F8613013440446187A01F0C7
:1025E00071FFA36E5BB184F8385094F83900BDE8F0
:1025F0007040184790F85F30002BE0D0704770BDF6
:102600000148FFF7CFBF00BF1898FF1F0148FFF731
:10261000C9BF00BF8498FF1F0148FFF72DBF00BF4F
:102620001898FF1F0148FFF727BF00BF8498FF1FBE
:1026300010B4047F4160022CC26002D010BC03F0D1
:102640008FB9836810BC1847F0B4464B464A186BE4
:10265000DC6A01791170454922790A709A6A007919
:102660000870002A46D05968C9688A423ED8216855
:10267000CC8B240402F1FF3065D4C0F30E00C88374
:10268000C88B80B2C882196B0968C88B000452D409
:10269000C2F30E00C883C88B002480B212F1FF324F
:1026A000C88218BF01229C62D96A2E4809680D6849
:1026B00000F12404A54236D00068C46814F0804FAD
:1026C0000C680D6815BF248824780235013544F064
:1026D00000440D604463196B254B09791970214939
:1026E00012B1CA6A12791A70F0BC7047521A9A6213
:1026F0000122D9E7586B196805681E4C0A63CC6241
:10270000CC682D681C4E24F080440327B542CC6071
:1027100083F825701FD1037F4260022BC2601ED058
:10272000F0BC03F01DB9016890F82400CC6840F0BB
:1027300000404863CFE7CC8BC2F3080004F47E442A
:102740002043C883A7E7CC8BC0F3080004F47E4481
:102750002043C88394E72B461146F0BC1847836892
:10276000F0BC1847F098FF1F1F8000401C800040FD
:102770001B80004000000FFF312600002DE9F04FC4
:10278000002183B0054602F07FFF0090002800F092
:10279000FB802B7F002B00F08C80009A02F5827367
:1027A00002F1040A9A4501937CD2DDF804E056E078
:1027B0002B7F022B00F08280032B66D0042B00F0CD
:1027C0008880052B00F09680062B00F0E080072B18
:1027D00000F0A180012B00F0B2806B6A2A6A5B14C2
:1027E00003EBA2329C1818191F1803EB070C03EB1C
:1027F0000C0699190B444FF6FF7BDAF80090DAF8D3
:10280000048032FB09F234FB19F4C2EA044230FBC3
:1028100008F037FB18F7C0EA0747DAF808003CFB76
:1028200000F0DAF8084036FB14F6C0EA0646DAF89B
:102830000C0031FB00F133FB10F3C1EA03438AE8DB
:102840008400CAF80860CAF80C302A6A6B6AA5F8D6
:102850001EB013440AF1100A2B62D64522D9E98B27
:102860000029A5D06B6A2A6A5B1403EBA2329C187C
:1028700018191F1803EB070C03EB0C0601F1FF3BC3
:1028800099191FFA8BFB0B44B7E72B6BEA8DEA8390
:102890004FF00401D64503F14043297793FBF2F34F
:1028A0006B62DCD8009C28460022214602F0C6FE5E
:1028B000204603B0BDE8F04F02F096BEAB8DEB832F
:1028C000002BE2D003234FF080422A6269622B770B
:1028D000C3E72B6B69624FF005022A779A132B62CC
:1028E00011461346164694461746104614464FF6B0
:1028F000FE7B82E76B6A2A6A5B1403EBA2329C18A8
:1029000018191F1803EB070C03EB0C0699190B445D
:102910004FF6FE7B71E72B8D2962EB83D3B103F178
:10292000FF3B4FF001022A770B461FFA8BFB6962CF
:102930000E468C460F4608460C460A465DE76B8DF0
:10294000EB834FF002022A774FF0804292FBF3F3C1
:102950006B6282E7B5F82AB04FF0804393FBFBF33C
:102960005A1454001019171802EB070C02EB0C064E
:102970000BF1FF3B91194FF002086B6285F81C8048
:102980001FFA8BFB531838E703B0BDE8F08F019BAB
:102990002977534586D9CAF80010CAF80410CAF836
:1029A00008100AF1100A53454AF8041CF3D879E7D5
:1029B00072B6037F012B0DD9C28E5AB1072B07D0F7
:1029C000036AC28307215B42017793FBF2F2426202
:1029D00062B67047038DC3830022026223B10123D4
:1029E0004262037762B67047428DC28302214FF084
:1029F0008043017793FBF2F3436262B6704700BFF6
:102A000010B5044602F092FF204610BD024A034969
:102A1000034803F00FB900BFFC97FF1F012A000015
:102A200038A7FF1F38B5074D074C08482A462146EE
:102A300003F000F92A4621460548BDE8384003F076
:102A4000F9B800BFFC97FF1F012A000040A7FF1F35
:102A500048A7FF1F024A0349034803F0EBB800BF31
:102A6000FC97FF1F012A000050A7FF1F024A0349DD
:102A7000034803F0DFB800BFFC97FF1F012A0000E6
:102A800058A7FF1F024A0349034803F0D3B800BF09
:102A9000FC97FF1F012A000060A7FF1F024A03499D
:102AA000034803F0C7B800BFFC97FF1F012A0000CE
:102AB00068A7FF1F024A0349034803F0BBB800BFE1
:102AC000FC97FF1F012A000070A7FF1F024A03495D
:102AD000034803F0AFB800BFFC97FF1F012A0000B6
:102AE00078A7FF1F2DE9F8434FF00008064600F1D4
:102AF0001805474641463046002F4FD002F0B8FD3A
:102B0000F0B12C68B4F5803F07F1040100F1040E28
:102B100007F5827C27D05EF8042B34FB02F334FBEC
:102B200012F903F30F0209F30F03C2EA03430A6821
:102B300093FA12F341F8043B8C45ECD802F054FDB3
:102B400008F10108B8F1040F05F10405D2D1002FF6
:102B500040D030463946002202F070FD3846BDE8CC
:102B6000F84302F041BD07F10C0100F10C0451F8EB
:102B7000083C54F8082C93FA12F341F8083C54F836
:102B8000042C51F8043C93FA12F38C4541F8043CB0
:102B900004F1080401F10801E9D8CFE702F074FD5F
:102BA00007460028CCD02868B0F5803FC8D0391D32
:102BB00007F582740B6830FB03F230FB13F302F36A
:102BC0000F0203F30F03C2EA034341F8043B8C42B4
:102BD000F0D8B5E7BDE8F883024A0349034803F09B
:102BE00029B800BFFC97FF1F012A000080A7FF1F24
:102BF00010B5002102F03CFD70B172B60A4B1A68A4
:102C000072B10A490C6844B11C60086062B6104693
:102C1000BDE8104002F0E8BC10BD086062B610BD0F
:102C2000186062B610BD00BF98A7FF1F88A7FF1FDE
:102C300038B5184B18491A68184C12681B79184D8A
:102C40000B70A242286836BF2246A4F5807202F5B6
:102C50008074C0B1011D31F9023B03F500431B1123
:102C600022F8023B9442F6D802F0BEFC0D4B002243
:102C7000196829601A600C4B1B781BB10B4B4FF085
:102C800080421A6038BD4FF4006322F8023B944240
:102C9000FBD8F0E78CA7FF1F1F800040408FFF1F6D
:102CA00098A7FF1F88A7FF1F94A7FF1F08E200E057
:102CB000F8B501214248434E02F0D4FD424A43494F
:102CC0001368802043F4805313600024087040F69A
:102CD000080534800120083401F064FCA3B2AB4243
:102CE0001CB2F6D13A4B1B685B0208D5394B1A6807
:102CF00048F6A273134048F6A27293424FD034496B
:102D0000344A0B68344F354D3548364C43F4800314
:102D10000B604FF0010E40F23F4648F6A37140F2BF
:102D20000113C7F800E02E60116014600360244CAA
:102D30002D4A236823491A6002259D802279196152
:102D400002F1804202F50432284EDE6040F20111A9
:102D5000D9804FF4807000210627B026D8829D606C
:102D6000D88399829F8399611170167002F020FDBB
:102D700022791F4B1F4E187053119B0003F16043C3
:102D80001D4C327003F5614302F1100002F01F0781
:102D900001211A4D44F82050B9401960F8BD0F4B7D
:102DA0001A6840F23F439A42A9D10B4B1B68012B92
:102DB000A5D10B4B1A6840F201139A429FD1B6E796
:102DC0008CA7FF1F00C00C402C80044021C00C4089
:102DD0003C800440006003400C60034004600340FA
:102DE00010600340A28F0100408EFF1F00FEFFFF16
:102DF00094A7FF1F1B8000400092FF1F312C000092
:102E0000024A0349034802F015BF00BFFC97FF1FA9
:102E1000012A00008CA7FF1F024A0349034802F061
:102E200009BF00BFFC97FF1F012A00009CA7FF1FDE
:102E3000024A0349034802F0FDBE00BFFC97FF1F92
:102E4000012A0000A4A7FF1F024A0349034802F019
:102E5000F1BE00BFFC97FF1F012A0000ACA7FF1FB7
:102E6000024A0349034802F0E5BE00BFFC97FF1F7A
:102E7000012A0000B4A7FF1F024A0349034802F0D9
:102E8000D9BE00BFFC97FF1F012A0000BCA7FF1F8F
:102E9000024A0349034802F0CDBE00BFFC97FF1F62
:102EA000012A0000C4A7FF1F90F8263003B970471D
:102EB0002DE9F04F83B0064602F042FB8346B0B1E5
:102EC00096F82600B369B6F92420C0B2032874D05E
:102ED00010D9822800F03E81832800F004818128E7
:102EE00059D0584602F080FB002386F8263003B004
:102EF000BDE8F08F012800F0D3800228F1D1A3496A
:102F000017460BF1140003F1400453F8042BD5B21B
:102F1000C2F3072C31F9155031F91CC020F80E5CB2
:102F2000C2F3074E120E31F91EE031F9122020F8DB
:102F30000ACC2F4465447F106D1020F8107C20F8D7
:102F40000C5C0CEB0E0702EB0E057F106D10A3421C
:102F500020F8087C20F806EC20F8045C20F8022C0D
:102F6000174600F11000D0D14021336AB2848B4261
:102F70008CBF5B1A00233046B4618CBF336286F885
:102F800026300022594602F059FB584603B0BDE8EE
:102F9000F04F02F029BB0BF1080003F5807453F8E1
:102FA000041B20F8041CA3424FEA114120F8021C24
:102FB00000F10400F3D18021D7E7744900909446D2
:102FC0000BF1240503F12004CDF804B053F8042BD1
:102FD0005FFA82FEC2F3072731F91EE031F917705C
:102FE00025F81AEC0EEB4E0AC2F307400CEB0A0B65
:102FF000BA4431F9100025F8127C07EB47094FEA73
:10300000AA0A25F818AC120E0EEB090A00EB4008CC
:103010004FEAAB0B4FEAAA0A31F9122025F81CBC83
:10302000814425F814ACDDF800B025F80A0C07EB54
:10303000080A4FEAA9094FEAAA0A25F8109C25F8C0
:103040000CAC1CFB0BE900EB020AF4449044BE44B8
:10305000074412FB0B004FEA6C0C4FEAA8084FEA3A
:10306000A9094FEA6E0E7F104FEA6A0A8010A34248
:1030700025F81ECC25F8022C25F8088C25F8209C74
:1030800025F816EC25F80E7C25F806AC25F8040C7E
:10309000944605F1200599D1DDF804B0202164E7BC
:1030A0003A490BF10C0503F1800453F8040B5FFA65
:1030B00080FCC0F3072EC0F30747000E31F81CC098
:1030C00031F81EE031F8177031F8100025F808CCFF
:1030D000A34225F806EC25F8047C25F8020C05F13E
:1030E0000805E2D167E715460BF1140003F140042F
:1030F0004FF0030E53F8042B11B201EB410705EB1F
:10310000070812144FEAA80815FB0E1C20F80A1C29
:103110000D4420F80C8C174401EB020812FB0E1131
:103120006D10BF104FEAAC0C4FEA68088910A3423B
:1031300020F80E5C20F8022C20F8087C20F810CC37
:1031400020F8068C20F8041C154600F11000D1D19F
:1031500020210AE710460BF10C0103F1800453F81B
:10316000042B17B212143844D51940106D10A34225
:1031700021F8080C21F8067C21F8045C21F8022CC7
:10318000104601F10801EAD1EEE600BFF42C02007E
:10319000002280F826200B688284043123F07F42CD
:1031A0001B0E8161C161026280F82630704700BF4A
:1031B000704700BF064B074ADA62022100225960BD
:1031C0009A7083F8242083F8302083F832207047E7
:1031D000CCA7FF1F2C2F020010B50121007801F0B1
:1031E000C7F90E4A137893B10D49CB7A00241846DB
:1031F000147063B1DC0703D50A4A88691060184669
:103200009A0705D4430702D5074B0A6A1A6010BD16
:10321000064BCA69C87A1A60F4E700BF24A8FF1FEA
:10322000F098FF1F00E100E008E100E004E100E0A9
:103230001E4B1A781AB10078002101F099B970B4C8
:103240001B4A1C49D47A096801251D70ECB172B67D
:10325000D37ADE071C4606D5174DD4682E68344055
:1032600094612C601C469D0706D5144D13692E6889
:10327000D47A3340D3612B60630705D5104C536972
:1032800025682B401362236062B61368DA688A42AD
:1032900007D00C4C1C600C4AD96041F080441C6182
:1032A0001A600078002170BC01F062B924A8FF1FE9
:1032B000F098FF1F20A8FF1F80E100E084E100E0FC
:1032C00088E100E001403F0000003F80F0B4124878
:1032D000124A036882B016460093009F4FF00045E3
:1032E000FF24136843F480631360D5625463D36A88
:1032F000002BFCDAB36BDBB2FF2B09D00368019320
:10330000019BDB1B8B42ECD3002002B0F0BC70476A
:10331000012002B0F0BC70473CAAFF1F00C0024071
:10332000F8B50D464FF4967116460446FFF7CEFFEA
:10333000284B1A684FF0004042F4806245F040018B
:103340001A60D8621A465963D36A002BFCDA214905
:1033500018204FF000470A6826FA00F342F4806212
:10336000DBB20A60CF624B63CB6A002BFCDA083811
:1033700010F1080FEFD155B3082D0CBF8721FF21A5
:10338000144B1A684FF0004042F480621A60D86211
:103390001A465963D36A002BFCDA0E4A00271646F8
:1033A0004FF00045FF21136843F480631360D5623A
:1033B0005163D36A002BFCDAB36BD8B21B06607082
:1033C00000D4F8BD0137B7F5807FECD1F8BD952169
:1033D000D6E700BF00C00240F0B41549154A0B689B
:1033E00082B016460093009F4FF00045FF241368FB
:1033F00043F480631360D5625463D36A002BFCDA14
:10340000B36BDBB2FF2B43700AD10B680193019BB6
:10341000DB1BB3F5967FEAD9002002B0F0BC704701
:10342000A3F1FE00B0FA80F0400902B0F0BC704792
:103430003CAAFF1F00C00240F8B58378032B0E465C
:10344000044618BF4E021546FFF7F2FE3246112120
:103450002046FFF765FF18B92046FFF7BDFF20B9EA
:103460002046FFF7B9FE0020F8BD204B2049214A35
:103470001A608E4659631A4659631E46596305F50C
:10348000FD70A91C05F5FE77D36A13F0F00FFBD091
:10349000C6F834E0B36B01F8013C1B1201F8023CA2
:1034A00002318F42F0D105F50075A8420DD20F4AC6
:1034B0001646D36A13F0F00FFBD0B36B191200F865
:1034C000021BA84200F8013CF3D3084B0949084A03
:1034D000196019465A63CB6A044A13F0F00FFAD008
:1034E0002046936BFFF778FE0120F8BD00C0024034
:1034F000FFFF009000041F80F0B4314E33684FF09E
:10350000004743F4806333603D46F762344671639D
:103510003346511C02F20127E26A002AFCDA1A68DB
:1035200011F8016C42F480621A60DD625E63E26A47
:10353000002AFCDA1A6811F8026B42F480628F42AA
:103540001A60DD625E63E7D11D49CA6A1C4B002A1E
:10355000FBDA1A684FF0004542F48062FF241A60DB
:103560001946DD625C63CB6A154A002BFBDA1368EF
:103570004FF0004543F48063FF2413601146D56289
:103580005463CB6A0E4A002BFBDA13684FF00045F8
:1035900043F48063FF2413601146D5625463CB6A01
:1035A000074A002BFBDA936BDBB203F01F02437078
:1035B000A2F10500B0FA80F04009F0BC704700BFEE
:1035C00000C0024070B5044671B18378032B0D46EC
:1035D00018BF4D021646FFF72BFE2A46182120463B
:1035E000FFF79EFE054620B12046FFF7F5FD0020BF
:1035F00070BD3246FE212046FFF77EFF0028F3D043
:103600004FF416712046FFF761FE0028ECD02A46E1
:103610000D212046FFF784FE0028E5D10B4B1A68E8
:103620004FF0004542F48062FF201A601946DD62C7
:103630005863CB6A054A002BFBDA936B13F0FF0F3C
:10364000D2D12046FFF7C8FD012070BD00C0024066
:10365000014B024A1A60704720A8FF1F0110013871
:1036600038B590F90530002B03DBBDE8384000F099
:103670006DB904460121006900F092F9F8B1257D89
:10368000104B13EB45151AD0A3790F4A012B9CBFA1
:10369000A369EB61E36912686B831B0CAB8232B1E7
:1036A00005F1160105F1180090472B8B6B826379A9
:1036B00003F07F036371BDE8384000F047B9002094
:1036C00038BD00BF34A8FF1F28A8FF1F10B500F1A8
:1036D000080204460121006A00F000FA50B1E369D3
:1036E0003BB96379A268E26163F07F0363710120F3
:1036F00010BD012010BD00BFF8B5837913B18269F8
:103700008A4201D20020F8BD022B0F4605461AD08E
:1037100007B32B6AE9681C7C4A1E04F109037C1E6E
:10372000DA40DC40A24211D9EB69AB6005F1080632
:1037300006E0A968286A00F099F9013C0028E1D068
:103740003246002CF5D1EF600120F8BD0029EBD006
:10375000A41AEBE7AF60EF600120F8BD2DE9F04F50
:103760008B46817985B001290746019205D0012356
:103770003B71002005B0BDE8F08F42799107F6D586
:10378000530708D5FC68B9698C4200F0A880FFF7A0
:10379000B3FF0028EBD0019BFC68002B49D0DFF879
:1037A0008C91DFF88CA1DDF80480386A0679013E3F
:1037B00006EA542616F0FF06C4F3080442D1002C92
:1037C00040D1B96800296FD1FA69002A7ED0BA6069
:1037D000C4F50075ADB245453AD9057C4169023A58
:1037E000AA400E4416441FFA88F51CB9F868BA6955
:1037F00090424CD23046012100F0D2F80028B6D0D9
:103800004C4404EB050E74450DD00BF1FF31621EE4
:103810000EF1FF3611F8010F02F8010F9642F9D1AF
:10382000C4EB0E04A344FC68B8EB05082C44FC6010
:10383000BBD1BB69A34257D27A79BC6142F0800206
:103840007A715AE0C4F50075ADB24545BA68C4D87E
:10385000017C4069023A8A400644B5F5007F16446F
:10386000C3D1DAF80020964204BF4FF0FF32CAF805
:1038700000202A4A314610685A46FFF7A3FE002866
:103880003FF475AF0BF5007B4FF40075CBE700F00C
:103890005DF800283FF46BAF2149CAF800600A7850
:1038A00042F001020A70ABE703AA00F0DFF800283B
:1038B0003FF460AF386A1B4B90F82050039A4FF6E4
:1038C000F871102D18BF19468A4280D33846FFF789
:1038D000FDFE00283FF44BAF386ABA6878E7019BD9
:1038E000002B7FF45CAF08E00F4B7A791B6823B1A3
:1038F000019B13B142F080027A71120709D5BB799E
:10390000002B3FF434AF3846FFF7AAFE00283FF4FF
:103910002EAF019805B0BDE8F08F00BF30A8FF1FA3
:1039200034AAFF1FF8FFFF0F28A8FF1F34A8FF1FAE
:103930002899FF1F00B583B002AB012203F8011DD7
:103940001946FFF70BFF03B05DF804FB70B50F4C91
:1039500023780BB9012070BD0D4B0E4D19682868F6
:103960000D4AFFF72FFE70B10C4E316819B90023D4
:103970002370012070BD2868074AFFF723FE10B1AD
:1039800000233360F3E7002070BD00BF34AAFF1F9F
:103990002899FF1F30A8FF1F34A8FF1F2CA8FF1F66
:1039A00070B50D4D2B6883420E460ED00446FFF7CE
:1039B000CDFF08B9002070BD084B094A18682146A0
:1039C000FFF73AFD0028F5D02C60064B19783143FB
:1039D0001970012070BD00BF2899FF1F30A8FF1F7C
:1039E00034A8FF1F34AAFF1FF8B590F82030C4692F
:1039F000102B1A4B05460E4617461B6816D004EBD3
:103A0000D1149C4216D106F07F06154A42F8267062
:103A10001449287E0A78012842F001020A7018D958
:103A2000A968114A0B4413600120F8BD04EB11246E
:103A30009C4208D000212046FFF7B2FF50B195F814
:103A40002030102B07D1F6B2054A234622F8167013
:103A5000DEE70120F8BD2346D5E700BF2899FF1F08
:103A600034A8FF1F34AAFF1F2CA8FF1FC36801330F
:103A70008B4218D370B590F82030102B154B0446AC
:103A800016460D46C0691B680FD000EBD110984256
:103A90000FD105F07F01104B53F8213023F0704314
:103AA0003360012070BD0020704700EB1120984268
:103AB00007D00021FFF774FF50B194F82030102B8D
:103AC000E7D1E9B2044B33F811303360012070BD07
:103AD000002070BD2899FF1F34A8FF1F2DE9F04F6B
:103AE000176883B06FB301374FF0000AC36803F162
:103AF000010813B38B46064691463C46002505E077
:103B00001C461F46F3680135AB4216D9A04538BFA5
:103B10000224214601AA304638BF2746FFF7A6FFF8
:103B2000631CD91B48B1019A002AE9D18B4510D0FA
:103B30001C46F3680135AB42E8D8002003B0BDE86D
:103B4000F08FA1F1010ABAFA8AFA07684FEA5A1A05
:103B5000CCE7012CF1D9F36801339C42EDD86FF02A
:103B6000704221463046FFF73FFF0028E5D0A742CC
:103B700014D2013C012CE0D9F36801339C42DCD81B
:103B8000621C21463046FFF72FFF0028D5D0A74200
:103B900004F1FF3402D0012CEED1CEE7D9F80010A9
:103BA00059B10129C9D9F36801339942C5D83A46B8
:103BB0003046FFF719FF0028BFD0C9F80070BAF1EE
:103BC000000F01D0013737600120B7E730B5094B4E
:103BD000426083B01B6801930D46019B0360002186
:103BE00004468160284600F0C9FC207320466573B6
:103BF00003B030BD3CAAFF1F30B5044683B0407B04
:103C000000F0BCFC237B834210D00A4A256813686D
:103C10000093009B61685B1B8B4207D31368019381
:103C2000019B20730120236003B030BD002003B04E
:103C300030BD00BF3CAAFF1F30B583B00446FFF77C
:103C4000DBFFB0B9A3681BB90023A37303B030BD79
:103C50000B4925680A680092009A521B9342F3D8D8
:103C60000B680193019BA06001202360A07303B047
:103C700030BD01200023A360A07303B030BD00BF9E
:103C80003CAAFF1F837B23B1007B003018BF0120BB
:103C900070471846704700BF837B23B1007BB0FAA2
:103CA00080F0400970471846704700BF844641EADB
:103CB000000313F003036DD1403A41D351F8043BA4
:103CC00040F8043B51F8043B40F8043B51F8043BF6
:103CD00040F8043B51F8043B40F8043B51F8043BE6
:103CE00040F8043B51F8043B40F8043B51F8043BD6
:103CF00040F8043B51F8043B40F8043B51F8043BC6
:103D000040F8043B51F8043B40F8043B51F8043BB5
:103D100040F8043B51F8043B40F8043B51F8043BA5
:103D200040F8043B51F8043B40F8043B51F8043B95
:103D300040F8043B51F8043B40F8043B403ABDD204
:103D4000303211D351F8043B40F8043B51F8043BA6
:103D500040F8043B51F8043B40F8043B51F8043B65
:103D600040F8043B103AEDD20C3205D351F8043B35
:103D700040F8043B043AF9D2043208D0D2071CBF01
:103D800011F8013B00F8013B01D30B88038060462A
:103D9000704700BF082A13D38B078DD010F00303A0
:103DA0008AD0C3F10403D21ADB071CBF11F8013B10
:103DB00000F8013B80D331F8023B20F8023B7BE75F
:103DC000043AD9D3013A11F8013B00F8013BF9D28A
:103DD0000B7803704B7843708B7883706046704724
:103DE000374A384913681B06FCD40B6813F080036C
:103DF000F8D172B634490A78002A5FD0334A344881
:103E0000F0B4344C176806682568D4680C303E441A
:103E1000143200681268304F35442C442044024468
:103E2000C2F34E022D4E2E482E4D2F4C42F400422E
:103E30003A60376806682D682C4A24680C303E4486
:103E4000006812682A4F35442C4420440244C2F3CF
:103E50004E02284E2848294D294C42F400423A602F
:103E6000376806682D68274A24680C303E4400688D
:103E70001268254F35442C4420440244C2F34E02BC
:103E8000224E2348234D244C42F400423A603768C6
:103E900006682D68214A24680C303E440068126888
:103EA00035442C4420440244C2F34E021C4842F4E0
:103EB000004202600B7062B6F0BC704762B6704799
:103EC00024B0034024B00B4036AAFF1F38B0034093
:103ED0003CB0034040B003402CB0034058B0034016
:103EE0005CB0034060B0034064B003406CB003407A
:103EF00030B0034038B00B403CB00B4040B00B40FA
:103F000044B00B404CB00B402CB00B4058B00B40B1
:103F10005CB00B4060B00B4064B00B406CB00B4029
:103F200030B00B4030B42948294A2A4B2A4D60242E
:103F3000E121047011701B78284C082B30D00A2B1B
:103F40002748284937D00C2B0CBF35223D2212239D
:103F50002A60236002600B60234B24491B78244AAB
:103F6000BBB101230B601360224B23491B78234A0A
:103F7000012B26D9042B0FD9082B1ED9102B94BF47
:103F8000862387230B6013601D4B01221A7030BCFF
:103F900070470B601360E7E784230B601360F3E75F
:103FA00000F58E200F490830012213232A60236078
:103FB00002600B60D0E73922F7E785230B601360BE
:103FC000E2E780230B601360DEE700BF004007409C
:103FD000014007402C99FF1F08B003400CB003407C
:103FE00008B00B400CB00B4039AAFF1F20B00340B3
:103FF00020B00B402D99FF1F24B0034024B00B408C
:1040000036AAFF1F0C2830B417D91023984228BFB6
:1040100018461C46104A114D1178181A8C42287007
:1040200018D00F4913700B7823B10E490E4A0023A4
:104030000B60136030BCFFF775BF0A2802D90C2350
:104040001C46E7E7082802D90A231C46E2E70823B2
:104050001C46DFE730BC70472C99FF1F35AAFF1FB5
:1040600036AAFF1F24B0034024B00B4028282FD8C5
:10407000334B2DE9F0411E5CFF2E2BD0314B1B78CA
:10408000002B2AD132062CD472B62F4D2F4C2F463E
:10409000012326602B7062B672B623681B060CD40F
:1040A0003B781BB9F4E72B78002BF1D062B601F016
:1040B000E1FC72B623681806F5D5254B1B68002273
:1040C0002A7062B6234A107843FA00F0BDE8F08106
:1040D000002070470020BDE8F081FFF781FE320626
:1040E000D2D572B61C4DDFF87C801C4C06F0400720
:1040F000FFB206F03F06D8F80030DFB123F010031E
:10410000C8F8003001232660134A2B7062B672B6DD
:10411000236819060CD413781BB9ECE72B78002B15
:10412000E9D062B601F0A6FC72B623681B06F5D58D
:104130000B4BC3E743F01003C8F80030E2E700BFC1
:104140003C2F020036AAFF1F38AAFF1F00B0034011
:1041500010B0034035AAFF1F37AAFF1F00B00B4065
:1041600010B00B400CB00B40F0B51B4B1B4E596808
:1041700018689A68DB6885B06C460FC43378990775
:104180001DD5174A174C1378174913F0700318BF41
:104190001370164A164B802717700026332003220F
:1041A00026706D4608701A7072B6043C45F0010521
:1041B0002046A84762B6237813F0700309D10D4B4F
:1041C000064901E0013B02D00A78D207FAD505B0D2
:1041D000F0BD237005B0F0BD682F02000100024061
:1041E00000000240040002400B00024007000240B1
:1041F0000A000240410D0300B0F5006F0AD210B56D
:10420000094B1B78DB07044606D504F1A050007863
:10421000C0B210BD00207047FFF7A6FF04F1A05008
:104220000078C0B210BD00BF01000240B0F5006FC1
:1042300017D238B50F4B1B78DA070D46044611D557
:1042400004F1A0500378AB420AD00B4A137813F064
:10425000700318BF1370074A05701378DB07FCD58D
:1042600038BD7047FFF780FF04F1A0500378AB42E0
:10427000EBD1F5E7010002400000024008B5104C08
:1042800008E0236859050DD423681A050FD4236864
:10429000DB0411D423685803F3D500F0E7FA236850
:1042A0005905F1D500F00EF823681A05EFD500F096
:1042B00009F82368DB04EDD500F004F8EAE700BF55
:1042C0003480044008B5FFF7D9FF00BF014B10222E
:1042D0001A80704700200540704700BF094908B5A3
:1042E0000B6830B16A461844A2F58052904202D25F
:1042F0000860184608BD02F087F90C2303604FF0F0
:10430000FF3008BD3099FF1FFEE700BF704700BFB8
:1043100010B40F4B53F8302092F880422CB1012397
:1043200069B182F8803010BC704703EBC0035B6852
:104330001A6841B922F002021A6010BC704782F874
:10434000003110BC704742F003021A6010BC704785
:10435000782F02001C4A02EBC00301295B6811D0D0
:1043600004291BD052F83000002280F8802229B1A5
:10437000022920D0032922D01A6070474FF480729E
:104380001A60704752F830004FF4A27280F8801221
:104390001A601A6822F020021A60704752F8301032
:1043A0004FF4A272012081F880021A601A6842F06C
:1043B00020021A60704740F203121A6070474FF4EF
:1043C00081721A60704700BF782F0200212848D8F8
:1043D000F8B5042A44D8DFE802F0484B4E03450004
:1043E0004FF410262B4B03EBC0030D465C6821688D
:1043F00011F4E06148D0284B284A2949C3F89C2190
:1044000004F140422748C3F8A411A2F59221264F97
:10441000C3F8A0017C292548C3F8A871C3F8AC01F2
:104420002CD9A2F594237C2B2AD9A2F596237C2B98
:1044300028D9A2F598237C2B29D9A2F59A227C2A87
:1044400027D81B4872B6236823F4702343F0807288
:10445000C4F384011643236040F82150266062B6FD
:10446000F8BD70474FF43026BCE74FF40026B9E79B
:104470004FF44026B6E74FF42026B3E70D48E1E7B6
:104480000D48DFE70D48DDE7FFF764FFB3E70C48B1
:10449000D8E7F8BD782F02000092FF1FD197FF1FC9
:1044A0007997FF1FA597FF1F4D97FF1F2197FF1FAC
:1044B0000C9AFF1F3499FF1F6C99FF1FBC99FF1FB7
:1044C000EC99FF1F1A4B03EBC00010B4426802F1D5
:1044D0004043A3F592217C2923D9A3F594217C297B
:1044E0000DD9A3F596217C291FD9A3F598217C2904
:1044F00019D9A3F59A237C2B11D80E4C00E00E4C51
:1045000072B613680D4823F08773C2F3840123F455
:10451000803343F08073136044F8210062B610BC0E
:104520007047074CECE7074CEAE7074CE8E700BFA9
:10453000782F02000C9AFF1F6C99FF1F0D4300009B
:104540003499FF1FEC99FF1FBC99FF1F30B4054B36
:10455000054D064C002210211A602A602060196067
:1045600030BC704714D0034004D0034000D0034057
:10457000212801D8FFF7CCBE704700BF212806D8FC
:10458000044B53F8303093F80002C0B2704700205B
:10459000704700BF782F0200212801D8FFF7DABE4C
:1045A000704700BF2DE9F843054672B6204F214BF6
:1045B000214A1B683C68126862B6520102D5322B50
:1045C00088BF013495B3C3F5BB331C4EDFF864904C
:1045D000DFF86480FF334FF47A72A6FB031302FB0B
:1045E00004F404EB931472B6D9F800103A68D8F8C2
:1045F00000E062B6C1F5BB33FF33A6FB03031EF038
:10460000806FC4EB93134FF47A7002D0322988BFC5
:10461000013200FB0233B3F57A7F04D3013D05D0AC
:1046200004F57A74DFE701F025FADCE7BDE8F883EA
:104630003CAAFF1F18E000E004ED00E0ABAAAAAA24
:10464000F8B52D4B2D49DFF8D0E0DFF8D0C02C4E67
:104650002C4D2D4C2D4A2E4F4FF4000018604FF07A
:10466000807018604FF0007018604FF08060186024
:104670004FF0006018600020086028234BF6FF719F
:10468000CCF80010CEF80030336013602B6023604C
:104690003B60B3629362092245F8242CC4F8D80F1A
:1046A00005F57F65C7F8D41F07F5FF2707F5FA67FB
:1046B000C6F8F83F2B6006F5FF26C4F8D42F05F5A1
:1046C000FD2504F5FF24386006F2F47611483160C8
:1046D00005F5FF6504F5FD642B6023600260FFF7BC
:1046E00021FC1920FFF75EFF00F026FE40F21310B8
:1046F000BDE8F840FFF756BF08E100E00480034042
:1047000014800340248003402C8003401C8003401D
:104710003480034000800B400C800340088003403D
:1047200030B472B62B4A13781D0706D52A4B196A86
:10473000002936D0996A002941D053781C0706D544
:10474000254B196C00293ED0996C002939D09378FB
:10475000190705D5204B196E002936D0996E89B1FD
:10476000D3781B0707D51C4BD3F880207AB3D3F836
:10477000882011213AB162B6184B00221A7030BC61
:1047800000F056BE0D21154C154D227843F83150DE
:1047900003EBC1030830013A5860227062B630BCA6
:1047A000704704220D4C0F4D217843F8325003EB33
:1047B000C20308304A1E5860227062B6EFE7052136
:1047C000E1E70921DFE70822ECE70C22EAE7102203
:1047D000E8E700BF883002000080FF1F15ABFF1F15
:1047E000C800400088004000431E032B1DD81B4A10
:1047F000400140F0100030B4104472B6184CE25C36
:10480000032A1BD8DFE802F00212151703220D88D5
:10481000E25410F0080F14BFC823882343EA05436D
:1048200008310360416062B630BC70470830022234
:10483000EDE70522EBE708300422E8E7094A52F8E1
:10484000230038B1084A52F82300416042F823108F
:1048500062B6E9E742F82310034AF7E70080FF1F3A
:1048600024ABFF1FECAAFF1FFCAAFF1F2DE9F04F8E
:10487000DFF818B3DFF818A387B044E0AE4F4FEA73
:10488000930807EBC809013ED9F8042003F0080398
:10489000F6B2A2F1080003F0FF04002B40F00481FF
:1048A00057F838301B0C99B222F8081C002B00F086
:1048B000F280A24B22F8064C42F8044C53F8262012
:1048C000002A00F06E819E4D55F8263058609D4CB0
:1048D00045F8260034F81630194424F8161000F074
:1048E00087FD002800F05681974A984B19F0080F71
:1048F00000F1080018BF1346C9F8040047F8383023
:1049000008238BF800309BF80040E4B261071BD508
:104910008F4B1B78ABB18F490A7802F0FF032AB1A5
:10492000013BDBB20B70002B00F0EF848A490A7860
:1049300002F0FF032AB1013BDBB20B70002B00F049
:10494000F78004238BF8003004F0080303F0FF0223
:10495000002B00F0D6809AF80030DBB21E098DD112
:104960009C08DFF8D49159F8342009EBC401C2F354
:104970008302013A49680C2A7ED8DFE802F081817F
:104980007D7D7D7D7D7D477D7D7D07000868734D44
:104990004A68734F734E286081B240F281606A4B5F
:1049A0006A604FF0010E0022814249F834303A60CB
:1049B000C9F81020C9F8182086F800E05E4C00F213
:1049C000F480B1F5D06F80F07883B1F5817F00F08D
:1049D000628300F28782802900F0EC82822940F015
:1049E0001E83A98801F07F01042900F218835E4824
:1049F0005E4C89000844227062700278930740F18F
:104A0000798384F800E04FF0020ED8E2544F3A6800
:104A100042B3574B534E5749188834780D78402885
:104A2000864645F0020828BF4FF0400E002C84F067
:104A300001043470CEEB00000CBF8824C82409EBBD
:104A4000C80680B285F0010544EA0E447260188001
:104A500049F8384072440D7018B9BEF1400F18BFC4
:104A600000223A603D4B1A88B2F5A06F04D10021B4
:104A70009A785970404B1A70404A012313703FE7EF
:104A8000364A158842F22100854200F0FF812E4A05
:104A900049F83420F0E72C4A2C4B19F0080F18BFC6
:104AA000134647F838302BE700F0C2FC344A35494A
:104AB00052F82630002B00F0B68158688C5D42F821
:104AC000260003F10802C9F80420032C05D8DFE80A
:104AD00004F0120F150204228A551A8819F0080FE3
:104AE0000CBF8823C82343EA024347F8383007E75E
:104AF00002228A55F1E703228A55EEE705228A55FC
:104B0000EBE7E00700F11A82210600F14982A207D3
:104B100006D51D4A1D4913780220DBB213700870B8
:104B2000E30602D5194B10221A7007B0BDE8F08FCA
:104B300000F0B2FC05E700BF0080FF1F98AAFF1F2E
:104B400044AAFF1FC4ABFF1FC800400088004000FC
:104B500020ABFF1FA9AAFF1F28ABFF1F0CABFF1F35
:104B600040AAFF1FA8AAFF1FC020074018ABFF1FC5
:104B700054AAFF1F14ABFF1F982007409420074042
:104B8000ECAAFF1F24ABFF1F8820074080200740AE
:104B900090200740AB4A47F8380013780133137070
:104BA000AEE643F82600A84D91E642F2210081428C
:104BB00000F0358100F2AF81B1F5086F00F01B8283
:104BC000B1F5106F40F02B82226AA049A8780870D6
:104BD000120600F14583D9F828209D49130600F1FB
:104BE0003A83D9F830209A49150600F12F83D9F875
:104BF00038209749140600F12483D9F840209449BD
:104C0000100600F11983D9F848209149120600F1E5
:104C10000E83D9F850208E49130600F10383D9F88A
:104C200058208B49150600F1F882D9F86020884990
:104C3000140600F12983D9F868208549100600F18F
:104C40001E83D9F870208249120600F11383D9F827
:104C500078207F49130600F10883D9F880207C4929
:104C6000150600F11C83D9F888207949140600F153
:104C70001083D9F890207649100600F1C882D9F83F
:104C800098207349120600F1BC827248724A734937
:104C9000019073486C4D734C049700230596029560
:104CA000804617460E461D460394386828B144686E
:104CB00000F0BEFB2046002CF9D100233B60029B94
:104CC00030681A46002342F8253028B1446800F0C5
:104CD000AFFB2046002CF9D100223260019A98F8EF
:104CE00000301146002241F8042B039A0191023B47
:104CF0004FF0000122F81510032B09D8DFE813F05C
:104D00004B0104004B0104004FF0010388F8003010
:104D10000135042D07F1040706F1040608F1010826
:104D2000C3D1514C514B2278464D049F059E002122
:104D300029701A70130700F14F8262784C49DFF82E
:104D400010810A7010074FF00001C9F83010C9F83F
:104D5000381000F12B824749A2780A700021C9F867
:104D60005010C9F858101107DFF8E48000F1DC8119
:104D7000E2784149364C0A7000211207C9F87010D8
:104D8000C9F8781000F1B98133780193002183F0DC
:104D90000102C9F89010C9F89810002002908046CE
:104DA0008446044635490D7845F0020E09EBCE03E2
:104DB0000393019B002B039B5C600CBF8824C824D9
:104DC00044EA080385F0010449F83E3032700C7063
:104DD000DFF87CE02A4BDFF8A480002840F0268131
:104DE000BCF1400F1BD144F0020C09EBCC03029C38
:104DF000DFF85CE05C60002A40F02E81020442F0A3
:104E000088029DF804304EF83C20044433700D7045
:104E10002346402803D100201A4A3B6010801A4ADA
:104E20000123137028E68B5D032B00F22D8101A274
:104E300052F823F001490000014900008B4F0000A7
:104E4000914F000015ABFF1F44AAFF1F20ABFF1FAF
:104E50000080FF1FFCAAFF1F98AAFF1FECAAFF1FDC
:104E600024ABFF1FC4ABFF1F88300200C4200740E3
:104E7000C8200740CC200740D020074014ABFF1FBC
:104E8000A8AAFF1F54AAFF1F94200740928892B936
:104E9000B14A0D784878157050708D78C878957043
:104EA000D07010680D79157186284D798979557102
:104EB000917100F0A580A949A94E0A78307882F056
:104EC0000105002842F002020D700CBF8821C821A4
:104ED00049F8321009EBC20280F001000021307065
:104EE0005160D4E540F20232914240F08D80A988B1
:104EF00001F07F01042900F292806A88002A40F0C4
:104F00008E809848CDF804E089000844017841F08B
:104F10000201017041E742F2212081427BD1A98840
:104F2000002940F0E480904B904A9148AC781D688D
:104F30001560CDF804E00A4604702EE78D4B8E48CC
:104F400086491A614FF0020E80F800E0854F0A7022
:104F50008A49196099608A4E8A4D8B4C9A610D215D
:104F60003970FF213170DFF840E229702270874DDF
:104F7000874A8EF800109F27012406F8047C5D60A4
:104F80000470DA6007B0BDE8F08F00238B55B7E4FA
:104F900001238B55B4E44FF0000388F80030B7E6E6
:104FA0007049784B80220D2008701A70A2077FF597
:104FB000B7ADAEE5774C4FF0020E22706270EA8812
:104FC000724580F0A38165490D78402A944645F0EA
:104FD000020E28BF4FF0400C04EB0C0309EBCE008F
:104FE0000293012344604FEA0C48CCEB020001938A
:104FF0000022C824E4E6684A664C12782270DEE794
:10500000664A0F21117056E7B1F5A06F07D1012351
:1050100000220193C1E642F221329142F7D0514A77
:105020000F231370544A0123137025E540287FF69F
:10503000DAAE44F002040EEBC401029E4E60BAB137
:105040009DF80410564A19703346403888F80050CD
:1050500040334EF83420DFE69DF80430337002040C
:10506000029B0D7042F0C80203444EF83C20D0E68B
:105070009DF804101970029B404A88F8005040388F
:1050800040334EF83420C7E619F0080F0CBF022356
:1050900003238B5534E4A98801F07F010429BED88D
:1050A0006A88002ABBD12F48CDF804E08900084463
:1050B000017821F0020101706FE63A4A5468002C31
:1050C000ADD06888B5F804E003E00C325468002CD9
:1050D000A5D013888342F8D153887345F5D1000ACF
:1050E00003280CBF94F800E0B2F808E067E7CDF8B9
:1050F00004E052E64FF0020E61E700F079F9002873
:1051000000F0F18008301D4AC4F88400C4F8802003
:1051100000F06EF9002800F0E0800830204AC9F85D
:105120008C00C9F888202FE600F062F9002800F012
:10513000E6800830114AC8F86400C8F8602000F022
:1051400057F9002800F0D5800830154AC9F86C00DE
:10515000C9F868200CE600BFCCABFF1F14ABFF1FE3
:10516000A8AAFF1FC02007403CAAFF1FD4ABFF1F07
:1051700034ABFF1F0080FF1F9420074088004000D1
:1051800088200740802007409820074058AAFF1F2A
:10519000ACAAFF1F18ABFF1F20ABFF1FA9AAFF1F60
:1051A000C80040008C3002008C20074000F020F93D
:1051B000002800F08C8008305D4AC8F84400C8F828
:1051C000402000F015F900287BD00830594AC9F872
:1051D0004C00C9F84820BEE500F00AF900286AD062
:1051E0000830534AC9F82400C9F8202000F000F91B
:1051F00000285AD008304F4AC9F82C00C9F8282096
:105200009BE5D1F89C00083800F012F93DE5D1F893
:105210009400083800F00CF931E5C86D083800F04A
:1052200007F902E5486D083800F002F9F7E4C86CA8
:10523000083800F0FDF8ECE4486C083800F0F8F8A5
:10524000E1E4C86B083800F0F3F8D6E4486B08389E
:1052500000F0EEF8CBE4C86A083800F0E9F8C0E4E2
:10526000606A083800F0E4F8B5E4C86F083800F068
:10527000DFF8F2E4486F083800F0DAF8E7E4C86EC7
:10528000083800F0D5F8DCE4486E083800F0D0F8B3
:10529000D1E4D1F88C00083800F0CAF8E9E4D1F87C
:1052A0008400083800F0C4F8DDE42A78C9F8280042
:1052B00001322A7041E52A78C9F8200001322A70AB
:1052C00094E72A78C9F8480001322A7043E52A7821
:1052D000C8F8400001322A7073E72A78C9F88800BC
:1052E00001322A7050E52A78C4F8800001322A7011
:1052F0000EE72A78C9F8680001322A7038E52A7862
:10530000C8F8600001322A7019E700BEBEF1400FF4
:10531000F44628BF4FF0400C04EB0C03029301232A
:10532000CCEB0E004FEA0C48002201933AE500BF97
:1053300088004000C80040002DE9F843204C00F0F0
:1053400035FC002204F1A00023461A605A6008339D
:1053500083424FF00001F8D11A4A1B4F13681B4DCE
:105360001B481C4EDFF87880DFF878C0DFF87890B3
:10537000DFF878E043F480231360C4F307233B7025
:10538000C4F307432B70240EFF2302F52832047068
:10539000114D88F8003011488CF80030D432337049
:1053A000012389F8003070268EF800104FF4007445
:1053B000102107F8183C2E7004601170BDE8F883C6
:1053C0000080FF1F348004409C200740B02007402D
:1053D000B42007401020074049E400E008E100E065
:1053E0008020074088200740942007400021074084
:1053F00072B60D480268B2FA82F30B2B10DC4FF044
:105400000041D94022EA0102026062B6074803EB7C
:10541000C303DB00C2180021C15010465160704721
:1054200062B60020704700BF149AFF1FBC93FF1F95
:105430000D4B0E4AC31AA2FB03231B090B2B0CD8DE
:105440000B4A127852B972B60A484FF0004102680E
:1054500021FA03F31A43026062B67047064A1278D3
:10546000002AF0D0FFF75CB9BC93FF1F398EE338F8
:1054700015ABFF1F149AFF1F20ABFF1F044B054AFB
:105480001B6890881BB11A885B88D31A1844704730
:1054900030ABFF1FC4ABFF1F38B50E4B1B7873B981
:1054A0000D4C216861B103F0FF054B880B8004208F
:1054B000FFF79AF9256038BD084B01221A7038BDF4
:1054C000FFF796FF0028F7D00146BDE838400420DA
:1054D000FFF78AB929ABFF1F2CABFF1F28ABFF1FBB
:1054E000C029F0B428BFC02172B6124B124E134A25
:1054F00018600023138033607360B360F36033611E
:105500007361012799B15D0903F01F0456F8252046
:1055100007FA04F4013322438B4246F82520F2D1E6
:105520000023438001338B4200F58270F9D162B6CB
:10553000F0BC704740ABFF1F48ABFF1F62ABFF1FC3
:10554000F0B472B6234F244E3C8806F1180306EBE4
:105550008400984212D256F8241099B9021D06F11F
:105560001B05631CAD1A03EB950503E052F8041B01
:1055700041B90133AB421C461046F7D162B6002058
:10558000F0BC7047B1FA81F34FF00042DA4021EAF3
:105590000201016001B9013410493C800A880132DE
:1055A00094B20C8062B6801B8010C3EB401000EBFD
:1055B000801083000A480B49006803F5FB531C3335
:1055C0000125C5540D88AA42184488BF0C80F0BC40
:1055D000704700BF62ABFF1F48ABFF1F64ABFF1FEC
:1055E00040ABFF1F3CABFF1F428872B60378012B14
:1055F00003D9013B037062B67047531170B40C4C71
:105600000C4D54F823102E88D2434FF0004002F086
:105610001F0220FA02F21143074A44F82310B34252
:1056200038BF2B801388013B138062B670BC704773
:1056300048ABFF1F62ABFF1F64ABFF1FC368B3B172
:1056400030B401E0DB688BB1187A9042FAD1586827
:105650005C7A006950F82450002DF3D140F82410F2
:10566000087801300870DB68002BEDD130BC704742
:10567000437A8B4206D90369002253F8210043F88C
:10568000212070470020704738B5437A8B421AD9E1
:10569000036953F82140002243F821209CB123786C
:1056A000012B0ED9FFF74CFF054628B14FF480724D
:1056B000211D0430FEF7FAFA2378013B23702846B7
:1056C00038BD204638BD002038BD00BF037C23BB59
:1056D0004368427A5B7A9A421FD830B472B6046843
:1056E000E3682BB3DA6832B119688C4216D01346DE
:1056F000DA68002AF8D1D8600023C360A37A0133A6
:10570000A37202684168012313728A7A1A448A726A
:1057100042681372037462B630BC70475D684168BA
:105720008D42E4D1198903899942F4D01346DFE709
:10573000E060E1E7037C10B5002B32D04368427A89
:105740005B7A9A422DD872B60268D36843B3984206
:1057500002D129E0984202D0DB68002BFAD14368DD
:10576000417A1B69044653F8210048B1FFF73CFF1A
:1057700072B66368627A1B69002143F822102268BE
:10578000937A013B937223689A7A02B91A7262681B
:10579000937A013B937263689A7A1AB10023237457
:1057A00062B610BD1A72F9E7C368D360D7E700BFCD
:1057B000084B1A7862B930B407480849D0250570FB
:1057C0004FF0804401220C6010461A7030BC7047C4
:1057D0000020704744ABFF1F5EE400E008E100E0FA
:1057E0001A491B4A1B48F8B50B681B4D046843F067
:1057F00080730B60136843F0010313602E6814B9C3
:1058000015E064699CB1237A002BFAD023682F68D5
:105810001B68204698472B68E188DB1B1B099AB25E
:105820008B42A28088BFE2806469002CEBD10A4BD6
:105830000A4A1B6810880A4C9B1B1B0999B28342B9
:10584000218001D91180F8BDF8BD00BFFCED00E05A
:10585000001000E038ABFF1F041000E060ABFF1F3A
:1058600066ABFF1FF0B572B699B902688AB10379C9
:105870000F2B0ED8274C218841FA03F5ED070AD5E6
:1058800003F1007303F59063B2EB431F03D162B6DB
:10589000F0BD204C2188002341FA03F212F00102EE
:1058A00007D00133102BF7D162B6002203710260DA
:1058B000F0BD01259D402943218062B6164E174D4B
:1058C000174FDFF864E0D9B20171346844F0020484
:1058D00034602C6844F002042C60A6F580268224F3
:1058E000A5F5802503F100733C6003F59063223E2B
:1058F000243D0C4C8EF800105B0131702970217032
:1059000003601A605A609A60DA601A615A619A619B
:10591000DA61F0BD68ABFF1F408004403C8004406A
:10592000008000401F8000401A80004003790F2B48
:1059300011D8094A10B4137072B6084904790A885C
:105940000123A34022EA03030B8062B61022002346
:1059500010BC0271036070471A80004068ABFF1FE3
:1059600010B4EFF3108272B6437F33B9017F01297F
:1059700007D003290FD00123437702B962B610BCC8
:105980007047124C2168A1B1114943610B688361D2
:1059900008605861EFE70F4C216881B10E494361FF
:1059A0000B688361086058610C4B4FF0805119609F
:1059B000E1E7074B4161816120601860DBE7064B3E
:1059C0004161816120601860EEE700BF78ABFF1F86
:1059D00074ABFF1F6CABFF1F70ABFF1F04ED00E04B
:1059E00070B5EFF3108272B60C4C206880B10C4E8B
:1059F00000254369236073B19D6102B962B64577A2
:105A000083689847EFF3108272B620680028F0D1BF
:105A100002B962B670BD3360EFE700BF6CABFF1F29
:105A200070ABFF1FFFF7DCBF024A1368013313603E
:105A3000704700BF3CAAFF1FF8B50E4671B17AB19E
:105A40000746144600253B6816F8011B1B683846BC
:105A50009847013C0544F6D12846F8BD0846F8BDF4
:105A60001046F8BD08B5FBF74DFCFCF731FA00F025
:105A700001F8FAE72DE9F843314E337893B1314F0D
:105A80003A787AB90122D9073A7036D49A0719D4EC
:105A900000225B073A7005D52B4B1A6812B1EFF361
:105AA00005820AB1BDE8F883EFF3108172B6186879
:105AB00018B1264C2278002A2ED00029F2D162B6E5
:105AC000BDE8F883DFF8908098F80020002ADFD046
:105AD000DFF88890002405E0013498F80030E4B243
